:100000000C942A000C9417180C944E180C94851814
:100010000C9424140C945B140C9447000C9447002B
:100020000C9447000C9447000C9447000C94470034
:100030000C9447000C9447000C9447000C94470024
:100040000C9447000C9447000C9447000C94470014
:100050000C94470011241FBECFE5D8E0DEBFCDBF12
:1000600011E0A0E6B0E0EEEFF3E402C005900D92DF
:10007000A637B107D9F711E0A6E7B1E001C01D929C
:10008000AF38B107E1F70E94CF1F0C94FD210C940B
:100090000000A0E3B0E0EFE4F0E00C94C621A8E09B
:1000A0004E010894811C911CF401BA2F1192BA954B
:1000B000E9F729833A834B835C836D837E838F8347
:1000C0009887CE010996FC011192AA95E9F7A986B5
:1000D000BA86CB86DC86ED86FE860F87188B298153
:1000E0003A814B815C812DA73EA74FA758AB790180
:1000F0008A018FEF9FEFA0E0B0E0E822F9220A2307
:100100001B231A014424552429853A854B855C8597
:1001100029A73AA74BA75CA759016A01A822B922CF
:10012000CA22DB223A0188249924C601B501A8011C
:1001300097010E9493216DA37EA38FA398A7C4016A
:10014000B3010E94932169A37AA38BA39CA3C60148
:10015000B501A20191010E9493217B018C01C40190
:10016000B3010E9493215B016C0189A19AA1ABA10B
:10017000BCA18E0D9F1DA01FB11F89A39AA3ABA385
:10018000BCA32DA13EA14FA158A5CA01AA27BB27F8
:1001900029A13AA14BA15CA1280F391F4A1F5B1F5F
:1001A00029A33AA34BA35CA32E153F054007510793
:1001B00040F480E090E0A1E0B0E0A80EB91ECA1EB5
:1001C000DB1E89A19AA1ABA1BCA19D0144275527A3
:1001D0002A0D3B1D4C1D5D1D2D8F3E8F4F8F58A34B
:1001E0006C01BB24AA248DA19EA1AFA1B8A5A070CB
:1001F000B070A80EB91ECA1EDB1EA98EBA8ECB8E99
:10020000DC8E9A8C8B8C7C8C9E8D6F8D78A1FE0100
:10021000719688E0DF011D928A95E9F72D8B9E8B00
:100220006F8B788F2D853E854F8558896DA57EA56E
:100230008FA598A90E9493217B018C012D813E817D
:100240004F81588569A57AA58BA59CA50E9493210D
:10025000E60EF71E081F191F6D897E898F89988DFC
:100260006E0D7F1D801F911F6D8B7E8B8F8B988FE6
:10027000EE892A2D392D482D572D7E2F8F89988D67
:10028000E096E2E10C94E221EF92FF920F93DF936C
:10029000CF93CDB7DEB760970FB6F894DEBF0FBE31
:1002A000CDBFA82F002309F461C07E010894E11C92
:1002B000F11C88E0F70111928A95E9F729833A83C6
:1002C0004B835C836D837E83AF83988780E2801B42
:1002D000E82FFF27E7FDF09549815A816B817C81EA
:1002E000181684F019861A861B861C86882799277B
:1002F0008E1B9F0B04C0440F551F661F771F8A95E6
:10030000D2F728C0202F332727FD3095DB01CA0103
:10031000022E04C0880F991FAA1FBB1F0A94D2F790
:1003200089879A87AB87BC8704C076956795579570
:100330004795EA95D2F78D819E81AF81B88504C03B
:10034000880F991FAA1FBB1F2A95D2F7482B592B3C
:100350006A2B7B2B4D875E876F87788B29853A8543
:100360004B855C856D857E85AF8598898A2F6096E3
:100370000FB6F894DEBF0FBECDBFCF91DF910F91C6
:10038000FF90EF900895EF92FF920F931F937B01E0
:100390008C0120E030E040E05FE40E941B068823EF
:1003A0008CF0C801B70120E030E040E05FE40E943B
:1003B00017040E94A9069B01AC0120503040404028
:1003C000504806C0C801B7010E94A9069B01AC01B4
:1003D000B901CA011F910F91FF90EF900895A2E01B
:1003E000B0E0E5EFF1E00C94C621122FB32EA42E5D
:1003F000952E862E372E282E9A83C22ED32EE42EAB
:10040000F52EA701960160E070E080E090E02117F2
:10041000A1F43B1591F44A1581F4591571F468154E
:1004200061F4731551F4821541F4AA819A1729F4E5
:10043000C701B6010E94FD06AAC0212F3B2D4A2DFF
:10044000592D682D732D822D9A8100E20E94760726
:10045000C901DA018030E0E09E07E1E0AE07E0E0AC
:10046000BE0780F48F3F9105A105B10531F028F05A
:1004700028E030E040E050E016C020E030E040E00E
:1004800050E011C08030F0E09F07F0E0AF07F1E0EE
:10049000BF0728F028E130E040E050E004C020E150
:1004A00030E040E050E0022E04C0B695A795979545
:1004B00087950A94D2F7FC01E859FF4F8081290102
:1004C0003A01480E511C611C711C4982212F3B2DA1
:1004D0004A2D592D682D732D822D9A81042D0E944D
:1004E0007607C901DA014C015D0180E290E08419D0
:1004F000950904C0CC0CDD1CEE1CFF1C8A95D2F7BC
:10050000C114D104E104F10441F081E090E0A0E0E5
:10051000B0E0882A992AAA2ABB2A90E249165104F7
:100520006104710459F40F2EF0E0EF2EF0E0FF2E7D
:10053000F0E80F2FFFE41F2FF02D21C0AFE14A1686
:1005400051046104710459F40F2EF0E0EF2EF0E035
:10055000FF2EF0E00F2FFFE41F2FF02D10C061E001
:1005600070E080E090E0098004C0660F771F881F6C
:10057000991F0A94D2F70E944B067B018C01C5019A
:10058000B4010E94FD06A80197010E9475042296FD
:10059000E2E10C94E221A0E0B0E0E1EDF2E00C94A5
:1005A000C621DC012B01FA019C91923008F439C17B
:1005B000EB018881823008F433C1943069F48430CF
:1005C00009F02FC111969C9111978981981709F410
:1005D00028C1A0E6B0E025C1843009F421C18230F1
:1005E000A9F4923009F01DC19A01AD0188E0EA0139
:1005F0000990AE01E90109929E018150C1F7E20123
:10060000898111969C918923818308C1923009F4D4
:1006100007C112962D903C901397EB018A819B8124
:100620001496AD90BD90CD90DC901797EC80FD8036
:100630000E811F819101281B390BB90137FF04C0BE
:1006400066277727621B730B603271050CF061C05F
:10065000121613066CF537014801062E04C0969455
:100660008794779467940A94D2F721E030E040E0D1
:1006700050E004C0220F331F441F551F6A95D2F764
:1006800021503040404050402E213F2140235123F3
:10069000211531054105510521F021E030E040E010
:1006A00050E079018A01E628F728082919293CC079
:1006B000232BD1F1260E371E35014601062E04C02C
:1006C00096948794779467940A94D2F721E030E067
:1006D00040E050E004C0220F331F441F551F6A95AD
:1006E000D2F721503040404050402A213B214C213C
:1006F0005D21211531054105510521F021E030E052
:1007000040E050E059016A01A628B728C828D92836
:100710000BC0821593052CF01C01AA24BB24650193
:1007200003C0EE24FF24870111969C91D2011196FB
:100730008C91981709F445C0992339F0A8019701C5
:100740002A193B094C095D0906C0A60195012E191D
:100750003F09400B510B57FD08C0118233822282A2
:1007600024833583468357831DC081E08183338290
:10077000228288279927DC01821B930BA40BB50BDF
:1007800084839583A683B7830DC0220F331F441F34
:10079000551F248335834683578382819381019734
:1007A000938382832481358146815781DA01C9018F
:1007B0000197A109B1098F5F9F4FAF4FBF4328F346
:1007C0000BC0918333822282EA0CFB1C0C1D1D1D81
:1007D000E482F5820683178383E080832481358158
:1007E0004681578157FF1AC0C901AA2797FDA095D6
:1007F000BA2F81709070A070B0705695479537955C
:100800002795822B932BA42BB52B84839583A683CA
:10081000B78382819381019693838283DF0101C034
:10082000D201CD01CDB7DEB7E2E10C94E221A0E226
:10083000B0E0EDE1F4E00C94D22169837A838B83FC
:100840009C832D833E834F835887E9E0EE2EF12C65
:10085000EC0EFD1ECE010196B7010E9419098E0112
:100860000F5E1F4FCE010596B8010E9419098A89B3
:1008700091E089278A8BC701B801AE01475E5F4FBF
:100880000E94CB020E944408A096E6E00C94EE2160
:10089000A0E2B0E0EEE4F4E00C94D22169837A8324
:1008A0008B839C832D833E834F835887F9E0EF2E03
:1008B000F12CEC0EFD1ECE010196B7010E94190924
:1008C0008E010F5E1F4FCE010596B8010E941909D7
:1008D000C701B801AE01475E5F4F0E94CB020E9484
:1008E0004408A096E6E00C94EE21A0E2B0E0EBE72D
:1008F000F4E00C94C62169837A838B839C832D83D7
:100900003E834F835887CE010196BE01675F7F4FBC
:100910000E941909CE010596BE016F5E7F4F0E94AD
:1009200019099985923088F089898230C8F094300D
:1009300019F4823051F404C0843029F4923081F4E7
:1009400080E690E0C6C0923049F420E09A858A891A
:10095000981321E02A87CE010996BBC0823049F462
:1009600020E09A858A89981321E02A8BCE0141964E
:10097000B0C02D843E844F8458886D887E888F88CF
:10098000988CEE24FF248701AA24BB24650140E053
:1009900050E060E070E0E0E0F0E0C1018170907054
:1009A000892BE9F0E60CF71C081D191D9A01AB0113
:1009B0002A0D3B1D4C1D5D1D80E090E0A0E0B0E0E5
:1009C000E614F7040805190520F481E090E0A0E0A2
:1009D000B0E0BA01A901480F591F6A1F7B1FAA0C7A
:1009E000BB1CCC1CDD1C97FE08C081E090E0A0E0A1
:1009F000B0E0A82AB92ACA2ADB2A3196E032F105EA
:100A000049F0660C771C881C991C569447943794BF
:100A10002794C3CFFA85EA892B893C898B859C85ED
:100A2000280F391F2E5F3F4F17C0CA018170907089
:100A3000892B61F016950795F794E79480E090E094
:100A4000A0E0B0E8E82AF92A0A2B1B2B76956795D7
:100A5000579547952F5F3F4F77FDE7CF0CC0440F69
:100A6000551F661F771F17FD4160EE0CFF1C001F0E
:100A7000111F21503040403090E0590790E0690745
:100A800090E4790760F32B8F3C8FDB01CA018F77ED
:100A90009070A070B07080349105A105B10561F42B
:100AA00047FD0AC0E114F1040105110529F0405C7D
:100AB0005F4F6F4F7F4F40781A8EFE1711F081E025
:100AC0008A8F4D8F5E8F6F8F78A383E0898FCE01E1
:100AD00049960E944408A096E2E10C94E221A8E124
:100AE000B0E0E5E7F5E00C94CE2169837A838B834F
:100AF0009C832D833E834F835887B9E0EB2EF12CE6
:100B0000EC0EFD1ECE010196B7010E9419098E015F
:100B10000F5E1F4FCE010596B8010E941909298565
:100B2000223008F47EC03989323010F4B8017CC01C
:100B30008A859A8989278A87243011F0223031F4F6
:100B4000231709F06EC060E670E06EC0343039F4EF
:100B50001D861E861F86188A1C861B8604C032309E
:100B600021F484E08987B7015FC02B853C858B89A0
:100B70009C89281B390B3C872B87ED84FE840F85CD
:100B80001889AD88BE88CF88D88CEA14FB040C0580
:100B90001D0540F4EE0CFF1C001F111F21503040BA
:100BA0003C872B8720E030E040E050E080E090E0A0
:100BB000A0E0B0E460E070E0EA14FB040C051D0561
:100BC00040F0282B392B4A2B5B2BEA18FB080C0929
:100BD0001D09B695A79597958795EE0CFF1C001FEC
:100BE000111F6F5F7F4F6F31710531F7DA01C90156
:100BF0008F779070A070B07080349105A105B10519
:100C000061F427FD0AC0E114F1040105110529F082
:100C1000205C3F4F4F4F5F4F20782D873E874F8797
:100C2000588BBE01675F7F4FCB010E9444086896D6
:100C3000EAE00C94EA21A8E1B0E0E1E2F6E00C94ED
:100C4000D22169837A838B839C832D833E834F8358
:100C5000588789E0E82EF12CEC0EFD1ECE0101969E
:100C6000B7010E9419098E010F5E1F4FCE01059634
:100C7000B8010E9419098985823040F08989823043
:100C800028F0C701B8010E94910901C08FEF689652
:100C9000E6E00C94EE21A8E0B0E0E1E5F6E00C948B
:100CA000CF219B01AC0183E08983DA01C901882748
:100CB000B7FD83959927AA27BB27B82E21153105A3
:100CC0004105510519F482E089833AC08823A9F0CF
:100CD000203080E0380780E0480780E8580729F492
:100CE00060E070E080E09FEC30C0EE24FF248701DC
:100CF000E21AF30A040B150B02C079018A018EE196
:100D0000C82ED12CDC82CB82ED82FE820F83188725
:100D1000C801B7010E94F50701971816190684F457
:100D2000082E04C0EE0CFF1C001F111F0A94D2F7FE
:100D3000ED82FE820F831887C81AD90ADC82CB8223
:100D4000BA82CE0101960E9444082896E9E00C94EC
:100D5000EB21ACE0B0E0EFEAF6E00C94D621698339
:100D60007A838B839C83CE010196BE016B5F7F4F9C
:100D70000E9419098D81823061F1823050F18430F6
:100D800021F48E81882351F12EC02F81388537FDC3
:100D900020C06E812F3131051CF06623F9F023C08D
:100DA0008EE190E0821B930B29853A854B855C850B
:100DB00004C056954795379527958A95D2F76623AF
:100DC000B1F050954095309521953F4F4F4F5F4F73
:100DD0000EC020E030E040E050E009C02FEF3FEFD0
:100DE0004FEF5FE704C020E030E040E050E8B90199
:100DF000CA012C96E2E00C94F221A8E0B0E0E3E016
:100E0000F7E00C94CE217B018C0161157105810501
:100E1000910519F482E0898360C083E089838EE1C3
:100E2000C82ED12CDC82CB82ED82FE820F83188704
:100E3000C801B7010E94F507FC013197F7FF3BC0DD
:100E4000222733272E1B3F0B57016801022E04C0B7
:100E5000D694C794B794A7940A94D2F740E050E090
:100E600060E070E081E090E0A0E0B0E004C0880FB6
:100E7000991FAA1FBB1F2A95D2F70197A109B10993
:100E80008E219F21A023B1230097A105B10521F058
:100E900041E050E060E070E04A295B296C297D293F
:100EA0004D835E836F8378878EE190E08E1B9F0B6E
:100EB0009C838B8312C0309781F00E2E04C0EE0C01
:100EC000FF1C001F111F0A94D2F7ED82FE820F83D0
:100ED0001887CE1ADF0ADC82CB821A82CE010196F5
:100EE0000E9444082896EAE00C94EA21EF92FF92CF
:100EF0000F93DF93CF93CDB7DEB760970FB6F8941B
:100F0000DEBF0FBECDBFA82F002309F461C07E0154
:100F10000894E11CF11C88E0F70111928A95E9F729
:100F200029833A834B835C836D837E83AF83988769
:100F300080E2801BE82FFF27E7FDF0954D815E8161
:100F40006F817885181684F01D861E861F86188A84
:100F5000882799278E1B9F0B04C076956795579518
:100F600047958A95D2F728C0202F332727FD309543
:100F7000DB01CA01022E04C0B695A7959795879507
:100F80000A94D2F78D879E87AF87B88B04C0440F31
:100F9000551F661F771FEA95D2F789819A81AB8129
:100FA000BC8104C0B695A795979587952A95D2F7E9
:100FB000482B592B6A2B7B2B49875A876B877C8759
:100FC00029853A854B855C856D857E85AF859889B9
:100FD0008A2F60960FB6F894DEBF0FBECDBFCF91BB
:100FE000DF910F91FF90EF900895EF92FF920F9392
:100FF0001F937B018C0180E0E81680E0F80681E019
:10100000080780E0180788F48FEFE816F10401055F
:10101000110531F028F088E090E0A0E0B0E017C0C2
:1010200080E090E0A0E0B0E012C080E0E81680E050
:10103000F80680E0080781E0180728F088E190E0D2
:10104000A0E0B0E004C080E190E0A0E0B0E020E2E9
:1010500030E040E050E0281B390B4A0B5B0B04C02A
:1010600016950795F794E7948A95D2F7F701E85912
:10107000FF4F8081281B310941095109C9011F9186
:101080000F91FF90EF900895DF92EF92FF920F93F0
:101090001F93FC01E480F58006811781D180808157
:1010A000823048F480E090E0A0E1B0E0E82AF92A3C
:1010B0000A2B1B2BA5C0843009F49FC0823021F479
:1010C000EE24FF24870105C0E114F1040105110598
:1010D00019F4E0E0F0E096C0628173819FEF62381E
:1010E00079070CF05BC022E83FEF261B370B2A3153
:1010F00031052CF020E030E040E050E02AC0B8019B
:10110000A701022E04C076956795579547950A94D6
:10111000D2F781E090E0A0E0B0E004C0880F991F12
:10112000AA1FBB1F2A95D2F70197A109B1098E21E9
:101130009F21A023B1230097A105B10521F081E0F3
:1011400090E0A0E0B0E09A01AB01282B392B4A2BAC
:101150005B2BDA01C9018F779070A070B07080347A
:101160009105A105B10539F427FF09C0205C3F4F67
:101170004F4F5F4F04C0215C3F4F4F4F5F4FE0E048
:10118000F0E02030A0E03A07A0E04A07A0E45A07C8
:1011900010F0E1E0F0E079018A0127C060387105C4
:1011A00064F5FB01E158FF4FD801C7018F779070BC
:1011B000A070B07080349105A105B10539F4E7FE47
:1011C0000DC080E490E0A0E0B0E004C08FE390E0C8
:1011D000A0E0B0E0E80EF91E0A1F1B1F17FF05C0B4
:1011E00016950795F794E794319687E0169507953D
:1011F000F794E7948A95D1F705C0EE24FF24870180
:10120000EFEFF0E06E2F679566276795902F9F7739
:10121000D794DD24D7948E2F8695492F462B582FAF
:101220005D29B701CA011F910F91FF90EF90DF90E8
:101230000895FC01DB01408151812281622F6F778B
:1012400070E0221F2227221F9381892F880F822B73
:10125000282F30E0991F9927991F11969C93119779
:1012600021153105A9F5411551056105710511F4E7
:1012700082E037C082E89FEF13969C938E9312977B
:101280009A01AB0167E0220F331F441F551F6A9577
:10129000D1F783E08C930DC0220F331F441F551FDD
:1012A00012968D919C911397019713969C938E9310
:1012B0001297203080E0380780E0480780E4580724
:1012C00058F314962D933D934D935C93179708957F
:1012D0002F3F310579F4411551056105710519F468
:1012E00084E08C93089564FF03C081E08C9312C066
:1012F0001C9210C02F57304013963C932E93129798
:1013000083E08C9387E0440F551F661F771F8A95F3
:10131000D1F7706414964D935D936D937C931797FA
:1013200008951F93DC01FB019C91923008F447C0A3
:101330008081823008F443C0943051F411961C919E
:10134000843099F58181682F70E0611B71093FC07D
:10135000843021F0923031F48230B9F181818823D8
:1013600089F12DC011961C9111978230F1F0818185
:101370001817D9F412962D913C911397828193817D
:101380008217930794F028173907BCF014968D91B3
:101390009D910D90BC91A02D24813581468157816E
:1013A000281739074A075B0718F4112341F00AC0D0
:1013B00082179307A407B50740F4112319F061E0E1
:1013C00070E005C06FEF7FEF02C060E070E0CB011E
:1013D0001F910895DF93CF930F92CDB7DEB781E0D1
:1013E0008983E5E4F0E01082A5E4B0E0E5E4F0E014
:1013F00080818C93A5E4B0E0E5E4F0E08081876033
:101400008C93A9E5B0E0E9E5F0E080818F738C93DF
:10141000A9E5B0E0E9E5F0E0808180648C93198271
:1014200089810F90CF91DF910895DF93CF9300D002
:10143000CDB7DEB78A8381E089838A81882F90E0E7
:10144000877B009781F4A5E4B0E0E5E4F0E08081DB
:10145000877B8C93A5E4B0E0E5E4F0E090818A819D
:10146000892B8C93198289810F900F90CF91DF91F6
:101470000895DF93CF9300D0CDB7DEB78A8381E0A4
:1014800089838A81882F90E08F7C009781F4A5E47E
:10149000B0E0E5E4F0E080818F7C8C93A5E4B0E0DF
:1014A000E5E4F0E090818A81892B8C93198289810F
:1014B0000F900F90CF91DF910895AF92BF92CF928E
:1014C000DF92EF92FF920F931F93DF93CF93CDB7ED
:1014D000DEB7C25AD0400FB6F894DEBF0FBECDBF04
:1014E0008A8381E089838A81853610F00C945813B1
:1014F000E5E4F0E08081882F90E088749070883473
:10150000910509F088C0E5E4F0E08081882F90E043
:101510008073907080339105C1F503E410E08A81F7
:10152000882F90E0AA2797FDA095BA2FBC01CD0186
:101530000E944B06DC01CB01BC01CD0120E030E074
:101540004FE753E40E947504DC01CB01BC01CD01DF
:1015500020E030E048EC52EC0E946F05DC01CB014A
:10156000BC01CD0120E030E04FE753E40E94480485
:10157000DC01CB01BC01CD010E94C301DC01CB0128
:10158000F801808319820C945A13E5E4F0E080811D
:10159000882F90E08073907080329105C1F503E44C
:1015A00010E08A81882F90E0AA2797FDA095BA2F96
:1015B000BC01CD010E944B06DC01CB01BC01CD0179
:1015C00020E030E040E853E40E947504DC01CB01E8
:1015D000BC01CD0120E030E048EC52E40E946F05F0
:1015E000DC01CB01BC01CD0120E030E040E85FE34D
:1015F0000E941704DC01CB01BC01CD010E94C30194
:10160000DC01CB01F801808319820C945A1381E02C
:1016100089830C945A13E5E4F0E08081882F90E0F0
:10162000887490708034910511F00C945A13E5E49D
:10163000F0E08081882F90E0807390708033910576
:1016400009F0E4C203E410E01E8B0D8B8A81082FA1
:1016500010E020E030E040E050E060E070E00D8716
:101660001E872F87388B498B5A8B6B8B7C8BAD8475
:10167000BE84CF84D888E988FA880B891C892A2DF2
:101680003B2D4C2D5D2D6E2D7F2D802F912F04E055
:101690000E9444012F8B388F498F5A8F6B8F7C8F1C
:1016A0008D8F9E8F1F892D85121B1F8F31E03FA3C9
:1016B0004F8D5F89541708F01FA2688D7E85671BC8
:1016C00068A381E088A798A1E88DE91708F018A61B
:1016D000F8A10FA1F01BF9A711E01AA729A538A1BD
:1016E000321708F01AA648A55AA5452B48A769A5A0
:1016F00068A3798D8F85781B79A391E09BA7E9A1D9
:10170000F98DFE1708F01BA609A118A5011B0CA74F
:1017100021E02DA73CA549A1431708F01DA65BA514
:101720006DA5562B5BA77CA579A38A8D9889891B0B
:101730008AA3E1E0EEA7FAA10A8D0F1708F01EA612
:101740001AA12BA5121B1FA731E038AB4FA55AA138
:10175000541708F018AA6EA578A9672B6EA78FA555
:101760008AA39B8DE9899E1B9BA3F1E0F9AB0BA19A
:101770001B8D101708F019AA2BA13EA5231B2AAB1D
:1017800041E04BAB5AA96BA1651708F01BAA79A9D8
:101790008BA9782B79AB9AA99BA3EC8DFA89EF1BC7
:1017A000ECA301E00CAB1CA12C8D211708F01CAAA6
:1017B0003CA149A9341B3DAB51E05EAB6DA97CA1B6
:1017C000761708F01EAA8CA99EA9892B8CABEDA9CF
:1017D000ECA3FD8D0B89F01BFDA311E01FAB2DA128
:1017E0003D8D321708F01FAA4DA15CA9451B48AFDB
:1017F00061E069AF78AD8DA1871708F019AE9FA998
:10180000E9AD9E2B9FABF8ADFDA30E8D1C89011B8E
:101810000EA38EA12FA9821B8EA33F8D3F8B48A1C3
:10182000488F59A1598F6AA16A8F7BA17B8F8CA1A8
:101830008C8F9DA19D8FEEA1EE8F2F89388D498DC4
:101840005A8D6B8D7C8D8D8D9E8D04E00E944401A0
:101850002AAF3BAF4CAF5DAF6EAF7FAF21968FAF7E
:10186000219722969FAF2297FF890AADF00F23960A
:10187000FFAF239711E02B961FAF2B9723962FAD29
:1018800023973F89231718F02B961FAE2B97488D6F
:101890005BAD450F24964FAF249761E02C966FAF58
:1018A0002C9724967FAD2497888D781718F02C9666
:1018B0001FAE2C972B969FAD2B972496EFAD2497B8
:1018C0009E0F2D969FAF2D97F1E02E96FFAF2E978E
:1018D0002D960FAD2D9724961FAD2497011718F064
:1018E0002E961FAE2E972C962FAD2C972E963FAD91
:1018F0002E97232B2C962FAF2C972D964FAD2D97EF
:1019000024964FAF2497598D6CAD560F25965FAF37
:10191000259771E02F967FAF2F9725968FAD25974E
:10192000998D891718F02F961FAE2F972C96EFAD33
:101930002C972596FFAD2597EF0F6096EFAF609738
:1019400001E061960FAF619760961FAD6097259695
:101950002FAD2597121718F061961FAE61972F963D
:101960003FAD2F9761964FAD6197342B2F963FAFC8
:101970002F9760965FAD609725965FAF25976A8D2C
:101980007DAD670F26966FAF269781E062968FAF89
:10199000629726969FAD2697EA8D9E1718F062965D
:1019A0001FAE62972F96FFAD2F9726960FAD269705
:1019B000F00F6396FFAF639711E064961FAF6497D3
:1019C00063962FAD639726963FAD2697231718F0A1
:1019D00064961FAE649762964FAD629764965FAD52
:1019E0006497452B62964FAF629763966FAD63978E
:1019F00026966FAF26977B8D8EAD780F27967FAF9B
:101A0000279791E065969FAF65972796EFAD27974B
:101A1000FB8DEF1718F065961FAE659762960FADB8
:101A2000629727961FAD2797010F66960FAF6697AF
:101A300021E067962FAF679766963FAD669727962A
:101A40004FAD2797341718F067961FAE67976596C6
:101A50005FAD659767966FAD6797562B65965FAFDD
:101A6000659766967FAD669727967FAF27978C8D93
:101A70009FAD890F28968FAF2897E1E06896EFAF6A
:101A800068972896FFAD28970C8DF01718F0689688
:101A90001FAE689765961FAD659728962FAD28975E
:101AA000120F69961FAF699731E06A963FAF6A9748
:101AB00069964FAD699728965FAD2897451718F03E
:101AC0006A961FAE6A9768966FAD68976A967FAD03
:101AD0006A97672B68966FAF689769968FAD69971D
:101AE00028968FAF28979D8D2196EFAD21979E0F59
:101AF00029969FAF2997F1E06B96FFAF6B972996D8
:101B00000FAD29971D8D011718F06B961FAE6B97BF
:101B100068962FAD689729963FAD2997230F6C964D
:101B20002FAF6C9741E06D964FAF6D976C965FADA0
:101B30006C9729966FAD2997561718F06D961FAEC2
:101B40006D976B967FAD6B976D968FAD6D97782B7C
:101B50006B967FAF6B976C969FAD6C9729969FAFF6
:101B60002997EE8D2296FFAD2297EF0F2A96EFAFC1
:101B70002A976B968FAD6B972A960FAD2A97800F99
:101B80002A968FAF2A972396AFAC23972496BFACA3
:101B900024972596CFAC25972696DFAC26972796D7
:101BA000EFAC27972896FFAC289729960FAD299779
:101BB0002A961FAD2A972A2D3B2D4C2D5D2D6E2D7B
:101BC0007F2D802F912F0E94EF01DC01CB01BC0102
:101BD000CD0120E030E048EC52EC0E946F05DC01C2
:101BE000CB01BC01CD0120E030E04FE753E40E947F
:101BF0004804DC01CB01BC01CD010E94C301DC0122
:101C0000CB01ED89FE898083198254C5E5E4F0E0BB
:101C10008081882F90E0807390708032910509F068
:101C200044C503E410E01C870B878A81082F10E06D
:101C300020E030E040E050E060E070E00B831C8387
:101C40002D833E834F83588769877A87AB80BC801A
:101C5000CD80DE80EF80F88409851A852A2D3B2D02
:101C60004C2D5D2D6E2D7F2D802F912F04E00E9435
:101C700044016E962FAF6E976F963FAF6F97A09609
:101C80004FAFA097A1965FAFA197A2966FAFA29713
:101C9000A3967FAFA397A4968FAFA497A5969FAF67
:101CA000A5976E961FAD6E972B81121BA6961FAF40
:101CB000A69731E0AE963FAFAE97A6964FADA697EA
:101CC0006E965FAD6E97541718F0AE961FAEAE9736
:101CD0006F966FAD6F977C81671BA7966FAFA797C5
:101CE00081E0AF968FAFAF97A7969FADA7976F96FE
:101CF000EFAD6F97E91718F0AF961FAEAF97A796A5
:101D0000FFADA797AE960FADAE97F01BE096FFAF75
:101D1000E09711E0E1961FAFE197E0962FADE097D5
:101D2000A7963FADA797321718F0E1961FAEE1973F
:101D3000AF964FADAF97E1965FADE197452BAF966C
:101D40004FAFAF97E0966FADE097A7966FAFA797AD
:101D5000A0967FADA0978D81781BA8967FAFA8979E
:101D600091E0E2969FAFE297A896EFADA897A09674
:101D7000FFADA097FE1718F0E2961FAEE297A89667
:101D80000FADA897AF961FADAF97011BE3960FAFAE
:101D9000E39721E0E4962FAFE497E3963FADE39716
:101DA000A8964FADA897431718F0E4961FAEE49796
:101DB000E2965FADE297E4966FADE497562BE2961C
:101DC0005FAFE297E3967FADE397A8967FAFA897C2
:101DD000A1968FADA1979E81891BA9968FAFA997D8
:101DE000E1E0E596EFAFE597A996FFADA997A1963B
:101DF0000FADA1970F1718F0E5961FAEE597A996BE
:101E00001FADA997E2962FADE297121BE6961FAF82
:101E1000E69731E0E7963FAFE797E6964FADE69756
:101E2000A9965FADA997541718F0E7961FAEE797EC
:101E3000E5966FADE597E7967FADE797672BE5965B
:101E40006FAFE597E6968FADE697A9968FAFA99706
:101E5000A2969FADA297EF819E1BAA969FAFAA97CD
:101E6000F1E0E896FFAFE897AA960FADAA97A29681
:101E70001FADA297101718F0E8961FAEE897AA9624
:101E80002FADAA97E5963FADE597231BE9962FAFB7
:101E9000E99741E0EA964FAFEA97E9965FADE99797
:101EA000AA966FADAA97651718F0EA961FAEEA9743
:101EB000E8967FADE897EA968FADEA97782BE8969B
:101EC0007FAFE897E9969FADE997AA969FAFAA974B
:101ED000A396EFADA397F885EF1BAB96EFAFAB974B
:101EE00001E0EB960FAFEB97AB961FADAB97A396C8
:101EF0002FADA397211718F0EB961FAEEB97AB967B
:101F00003FADAB97E8964FADE897341BEC963FAFEB
:101F1000EC9751E0ED965FAFED97EC966FADEC97D7
:101F2000AB967FADAB97761718F0ED961FAEED9799
:101F3000EB968FADEB97ED969FADED97892BEB96DA
:101F40008FAFEB97EC96EFADEC97AB96EFAFAB970F
:101F5000A496FFADA4970985F01BAC96FFAFAC9794
:101F600011E0EE961FAFEE97AC962FADAC97A4960E
:101F70003FADA497321718F0EE961FAEEE97AC96D1
:101F80004FADAC97EB965FADEB97451BEF964FAF20
:101F9000EF9761E0C158DF4F6883CF57D040EF968D
:101FA0007FADEF97AC968FADAC97871728F0C158EF
:101FB000DF4F1882CF57D040EE969FADEE97C158B5
:101FC000DF4FE881CF57D0409E2BEE969FAFEE9724
:101FD000EF96FFADEF97AC96FFAFAC97A5960FAD20
:101FE000A5971A85011BAD960FAFAD97AD968FAD36
:101FF000AD97EE962FADEE97821BAD968FAFAD9756
:10200000A6963FADA6976E963FAF6E97A7964FAD3B
:10201000A7976F964FAF6F97A8965FADA897A096BA
:102020005FAFA097A9966FADA997A1966FAFA19743
:10203000AA967FADAA97A2967FAFA297AB968FADD7
:10204000AB97A3968FAFA397AC969FADAC97A49692
:102050009FAFA497AD96EFADAD97A596EFAFA597BF
:102060006E962FAD6E976F963FAD6F97A0964FAD62
:10207000A097A1965FADA197A2966FADA297A396E8
:102080007FADA397A4968FADA497A5969FADA59776
:1020900004E00E944401C058DF4F2883C058D0405C
:1020A000CF57DF4F3883C158D040CE57DF4F4883DA
:1020B000C258D040CD57DF4F5883C358D040CC577B
:1020C000DF4F6883C458D040CB57DF4F7883C55863
:1020D000D040CA57DF4F8883C658D040C957DF4F1A
:1020E0009883C758D0406E96FFAD6E97C058DF4FAB
:1020F0000881C058D040F00FC857DF4FF883C85848
:10210000D04011E0C057DF4F1883C059D040C857A6
:10211000DF4F2881C858D0406E963FAD6E97231789
:1021200028F0C057DF4F1882C059D0406F964FAD8E
:102130006F97CF57DF4F5881C158D040450FC757D1
:10214000DF4F4883C958D04061E0CF56DF4F6883E6
:10215000C159D040C757DF4F7881C958D0406F96DA
:102160008FAD6F97781728F0CF56DF4F1882C1597F
:10217000D040C057DF4F9881C059D040C757DF4F7C
:10218000E881C958D0409E0FCE56DF4F9883C25980
:10219000D040F1E0CD56DF4FF883C359D040CE5642
:1021A000DF4F0881C259D040C757DF4F1881C95847
:1021B000D040011728F0CD56DF4F1882C359D040C8
:1021C000CF56DF4F2881C159D040CD56DF4F3881DF
:1021D000C359D040232BCF56DF4F2883C159D0405D
:1021E000CE56DF4F4881C259D040C757DF4F488392
:1021F000C958D040A0965FADA097CE57DF4F6881F9
:10220000C258D040560FC657DF4F5883CA58D040E7
:1022100071E0CC56DF4F7883C459D040C657DF4FAA
:102220008881CA58D040A0969FADA097891728F002
:10223000CC56DF4F1882C459D040CF56DF4FE881CB
:10224000C159D040C657DF4FF881CA58D040EF0F70
:10225000CB56DF4FE883C559D04001E0CA56DF4F67
:102260000883C659D040CB56DF4F1881C559D0409E
:10227000C657DF4F2881CA58D040121728F0CA56D7
:10228000DF4F1882C659D040CC56DF4F3881C45931
:10229000D040CA56DF4F4881C659D040342BCC5667
:1022A000DF4F3883C459D040CB56DF4F5881C559D2
:1022B000D040C657DF4F5883CA58D040A1966FAD63
:1022C000A197CD57DF4F7881C358D040670FC557CE
:1022D000DF4F6883CB58D04081E0C956DF4F8883F9
:1022E000C759D040C557DF4F9881CB58D040A196F1
:1022F000EFADA1979E1728F0C956DF4F1882C75936
:10230000D040CC56DF4FF881C459D040C557DF4F7D
:102310000881CB58D040F00FC856DF4FF883C8591A
:10232000D04011E0C756DF4F1883C959D040C85676
:10233000DF4F2881C859D040C557DF4F3881CB586F
:10234000D040231728F0C756DF4F1882C959D04014
:10235000C956DF4F4881C759D040C756DF4F588113
:10236000C959D040452BC956DF4F4883C759D04083
:10237000C856DF4F6881C859D040C557DF4F6883C2
:10238000CB58D040A2967FADA297CC57DF4F888123
:10239000C458D040780FC457DF4F7883CC58D04012
:1023A00091E0C656DF4F9883CA59D040C457DF4FDB
:1023B000E881CC58D040A296FFADA297EF1728F045
:1023C000C656DF4F1882CA59D040C956DF4F088120
:1023D000C759D040C457DF4F1881CC58D040010FA7
:1023E000C556DF4F0883CB59D04021E0C456DF4F9C
:1023F0002883CC59D040C556DF4F3881CB59D040C7
:10240000C457DF4F4881CC58D040341728F0C45609
:10241000DF4F1882CC59D040C656DF4F5881CA5979
:10242000D040C456DF4F6881CC59D040562BC65699
:10243000DF4F5883CA59D040C556DF4F7881CB59FA
:10244000D040C457DF4F7883CC58D040A3968FAD8F
:10245000A397CB57DF4F9881C558D040890FC357FA
:10246000DF4F8883CD58D040E1E0C356DF4FE8838B
:10247000CD59D040C357DF4FF881CD58D040A396F7
:102480000FADA397F01728F0C356DF4F1882CD5930
:10249000D040C656DF4F1881CA59D040C357DF4FCE
:1024A0002881CD58D040120FC256DF4F1883CE5925
:1024B000D04031E0C156DF4F3883CF59D040C256AB
:1024C000DF4F4881CE59D040C357DF4F5881CD5898
:1024D000D040451728F0C156DF4F1882CF59D04061
:1024E000C356DF4F6881CD59D040C156DF4F788148
:1024F000CF59D040672BC356DF4F6883CD59D040AA
:10250000C256DF4F8881CE59D040C357DF4F8883F2
:10251000CD58D040A4969FADA497CA57DF4FE8810D
:10252000C658D0409E0FC257DF4F9883CE58D04038
:10253000F1E0C056DF4FF883C05AD040C257DF4F9A
:102540000881CE58D040A4961FADA497011728F05B
:10255000C056DF4F1882C05AD040C356DF4F288183
:10256000CD59D040C257DF4F3881CE58D040230FCD
:10257000CF55DF4F2883C15AD04041E0CE55DF4FC1
:102580004883C25AD040CF55DF4F5881C15AD040FE
:10259000C257DF4F6881CE58D040561728F0CE552D
:1025A000DF4F1882C25AD040C056DF4F7881C05AE0
:1025B000D040CE55DF4F8881C25AD040782BC056CC
:1025C000DF4F7883C05AD040CF55DF4F9881C15A32
:1025D000D040C257DF4F9883CE58D040A596EFAD7C
:1025E000A597C957DF4FF881C758D040EF0FC157A3
:1025F000DF4FE883CF58D040C056DF4F8881C05AA4
:10260000D040C157DF4F0881CF58D040800FC1570D
:10261000DF4F8883CF58D040C857DF4FA880C858B5
:10262000D040C757DF4FB880C958D040C657DF4F9A
:10263000C880CA58D040C557DF4FD880CB58D0404B
:10264000C457DF4FE880CC58D040C357DF4FF880E5
:10265000CD58D040C257DF4F0881CE58D040C15727
:10266000DF4F1881CF58D0402A2D3B2D4C2D5D2DAA
:102670006E2D7F2D802F912F0E94EF01DC01CB0169
:10268000BC01CD0120E030E048EC52E40E946F052F
:10269000DC01CB01BC01CD010E94C301DC01CB01F7
:1026A000EB85FC858083198205C081E0898302C0A7
:1026B00082E089838981CE55DF4F0FB6F894DEBF63
:1026C0000FBECDBFCF91DF911F910F91FF90EF9083
:1026D000DF90CF90BF90AF900895DF93CF9300D05D
:1026E000CDB7DEB78A8381E089838A81882F90E025
:1026F000887F009789F4A5E4B0E0E5E4F0E080810C
:10270000887F8C93A5E4B0E0E5E4F0E090818A81D5
:10271000892B8C93198202C082E0898389810F9072
:102720000F90CF91DF910895DF93CF9300D0CDB775
:10273000DEB78A8381E089838A81882F90E08F7356
:10274000009751F4A9E5B0E0E9E5F0E090818A81D5
:10275000892B8C93198202C082E0898389810F9032
:102760000F90CF91DF910895DF93CF9300D0CDB735
:10277000DEB78A8381E089838A81882F90E08F7316
:10278000009759F4A9E5B0E0E9E5F0E08081982FE1
:102790008A81809589238C93198289810F900F906B
:1027A000CF91DF910895DF93CF93CDB7DEB72A970E
:1027B0000FB6F894DEBF0FBECDBF8A837C836B83D8
:1027C0005E834D8381E089838A81882F90E08F73B7
:1027D000009781F58A81803C69F18B819C8100970B
:1027E00049F11A8619868A81803821F081E090E0CB
:1027F0009A87898789859A85880F991FFC01EA58ED
:10280000FE4F8B819C819183808318861F828A81F1
:10281000803821F081E090E098878F838F819885C0
:10282000880F991FFC01E658FE4F8D819E81918390
:102830008083198289812A960FB6F894DEBF0FBE75
:10284000CDBFCF91DF9108951F920F920FB60F92D7
:1028500011242F933F934F935F936F937F938F93A5
:102860009F93AF93BF93EF93FF93DF93CF93CDB736
:10287000DEB78091760190917701009749F0E09161
:102880007601F091770180917A0190917B01099511
:10289000CF91DF91FF91EF91BF91AF919F918F9178
:1028A0007F916F915F914F913F912F910F900FBE4C
:1028B0000F901F9018951F920F920FB60F92112430
:1028C0002F933F934F935F936F937F938F939F9338
:1028D000AF93BF93EF93FF93DF93CF93CDB7DEB763
:1028E0008091780190917901009749F0E091780109
:1028F000F091790180917C0190917D010995CF91B2
:10290000DF91FF91EF91BF91AF919F918F917F9157
:102910006F915F914F913F912F910F900FBE0F904C
:102920001F901895DF93CF93CDB7DEB7789480E0F2
:10293000CF91DF910895DF93CF93CDB7DEB7789431
:1029400080E0CF91DF910895DF93CF93CDB7DEB7CD
:10295000F89480E0CF91DF910895DF93CF93CDB7C6
:10296000DEB729970FB6F894DEBF0FBECDBF81E06A
:102970008A8319828DC18981282F30E0C901880F8F
:10298000991F820F931FFC01E759FE4F8081882316
:1029900009F07EC0A5E5B0E0E5E5F0E080818C7F40
:1029A0008C938981282F30E0C901880F991F820FED
:1029B000931FFC01E559FE4F8081282F30E03987B5
:1029C0002887888599858F319105F1F0288539858B
:1029D0002032310534F4888599858731910561F07D
:1029E00023C0288539852134310519F188859985D9
:1029F0008236910589F018C0A5E5B0E0E5E5F0E084
:102A0000808181608C9315C0A5E5B0E0E5E5F0E03C
:102A1000808182608C930DC0A5E5B0E0E5E5F0E033
:102A2000808183608C9305C082E08A839A819F8332
:102A300037C18981282F30E0C901880F991F820F83
:102A4000931FFC01E659FE4F80818F3241F4ABE5C4
:102A5000B0E0EBE5F0E0808180648C9316C1898161
:102A6000282F30E0C901880F991F820F931FFC01A6
:102A7000E659FE4F80818C3541F4ABE5B0E0EBE5E3
:102A8000F0E080818F7B8C9300C182E08A8306C155
:102A90008981282F30E0C901880F991F820F931F69
:102AA000FC01E759FE4F8081813009F07EC0A5E529
:102AB000B0E0E5E5F0E08081837F8C938981282F69
:102AC00030E0C901880F991F820F931FFC01E5595F
:102AD000FE4F8081282F30E03E832D838D819E81A3
:102AE0008F319105F1F02D813E812032310534F492
:102AF0008D819E818731910561F023C02D813E81BA
:102B00002134310519F18D819E818236910589F03C
:102B100018C0A5E5B0E0E5E5F0E0808184608C9325
:102B200015C0A5E5B0E0E5E5F0E0808188608C9314
:102B30000DC0A5E5B0E0E5E5F0E080818C608C9308
:102B400005C082E08A839A819F83AAC08981282F49
:102B500030E0C901880F991F820F931FFC01E659CD
:102B6000FE4F80818F3241F4ABE5B0E0EBE5F0E061
:102B7000808180688C9389C08981282F30E0C901C9
:102B8000880F991F820F931FFC01E659FE4F808129
:102B90008C3541F4ABE5B0E0EBE5F0E080818F7778
:102BA0008C9373C082E08A8379C08981282F30E0BA
:102BB000C901880F991F820F931FFC01E759FE4F2F
:102BC0008081823009F05FC08981282F30E0C901FF
:102BD000880F991F820F931FFC01E559FE4F8081DA
:102BE000282F30E03C832B838B819C818F31910592
:102BF00031F02B813C812236310549F010C0A4E52B
:102C0000B0E0E4E5F0E080818F7B8C930DC0A4E51B
:102C1000B0E0E4E5F0E0808180648C9305C082E060
:102C20008A833A813F833CC08981282F30E0C901E3
:102C3000880F991F820F931FFC01E659FE4F808178
:102C40008F3241F4ABE5B0E0EBE5F0E080818062EB
:102C50008C931BC08981282F30E0C901880F991FF0
:102C6000820F931FFC01E659FE4F80818C3541F4A1
:102C7000ABE5B0E0EBE5F0E080818F7D8C9305C0A3
:102C800082E08A830BC082E08A8389818F5F898397
:102C9000909168018981891708F46DCE8A818F83AC
:102CA0008F8129960FB6F894DEBF0FBECDBFCF91AE
:102CB000DF910895DF93CF93CDB7DEB72B970FB693
:102CC000F894DEBF0FBECDBF9B838A836C8381E007
:102CD00089838A819B81009709F4C1C0EA81FB81C5
:102CE0008081882309F044C0A5E5B0E0E5E5F0E087
:102CF00080818C7F8C938C81282F30E03B872A87C2
:102D00008A859B858F319105F1F02A853B8520329C
:102D1000310534F48A859B858731910561F023C0A4
:102D20002A853B852134310509F18A859B858236C8
:102D3000910589F018C0A5E5B0E0E5E5F0E08081F7
:102D400081608C9313C0A5E5B0E0E5E5F0E08081FB
:102D500082608C930BC0A5E5B0E0E5E5F0E08081F2
:102D600083608C9303C092E099877DC0198279C0FB
:102D7000EA81FB818081813009F044C0A5E5B0E0A3
:102D8000E5E5F0E08081837F8C938C81282F30E013
:102D900038872F838F8198858F319105F1F02F81AE
:102DA00038852032310534F48F819885873191053B
:102DB00061F023C02F8138852134310509F18F81DD
:102DC00098858236910589F018C0A5E5B0E0E5E563
:102DD000F0E0808184608C9313C0A5E5B0E0E5E568
:102DE000F0E0808188608C930BC0A5E5B0E0E5E55C
:102DF000F0E080818C608C9303C092E0998733C0AF
:102E000019822FC0EA81FB818081823029F58C8173
:102E1000282F30E03E832D838D819E818F31910557
:102E200031F02D813E812236310549F010C0A4E5F4
:102E3000B0E0E4E5F0E080818F7B8C930BC0A4E5EB
:102E4000B0E0E4E5F0E0808180648C9303C032E080
:102E5000398709C0198205C082E0898704C083E0F0
:102E600089839981998789852B960FB6F894DEBF5F
:102E70000FBECDBFCF91DF910895DF93CF9300D0E8
:102E800000D0CDB7DEB79B838A8381E089838A81B6
:102E90009B81009769F1EA81FB818081882349F455
:102EA000ABE5B0E0EBE5F0E0808180648C931982C3
:102EB00021C0EA81FB818081813049F4ABE5B0E03B
:102EC000EBE5F0E0808180688C93198213C0EA8181
:102ED000FB818081823049F4ABE5B0E0EBE5F0E0C6
:102EE000808180628C93198205C082E08C8304C04B
:102EF00083E0898389818C838C810F900F900F9060
:102F00000F90CF91DF910895DF93CF9300D000D041
:102F1000CDB7DEB79B838A8381E089838A819B81D9
:102F2000009769F1EA81FB818081882349F4ABE550
:102F3000B0E0EBE5F0E080818F7B8C93198221C0BB
:102F4000EA81FB818081813049F4ABE5B0E0EBE5BB
:102F5000F0E080818F778C93198213C0EA81FB8126
:102F60008081823049F4ABE5B0E0EBE5F0E08081B0
:102F70008F7D8C93198205C082E08C8304C083E02E
:102F8000898389818C838C810F900F900F900F9093
:102F9000CF91DF910895DF93CF93CDB7DEB7279719
:102FA0000FB6F894DEBF0FBECDBF9B838A837D83AF
:102FB0006C835F834E8381E089838A819B81009744
:102FC00051F18C819D81009731F1EA81FB818081F3
:102FD0008330F0F41982EA81FB818081882F90E0B0
:102FE000880F991FFC01E258FE4F8C819D819183CF
:102FF0008083EA81FB818081882F90E0880F991F70
:10300000FC01EC57FE4F8E819F819183808305C028
:1030100082E0898302C083E08983898127960FB685
:10302000F894DEBF0FBECDBFCF91DF9108951F9200
:103030000F920FB60F9211242F933F934F935F93EC
:103040006F937F938F939F93AF93BF93EF93FF9370
:10305000DF93CF93CDB7DEB780917E0190917F0152
:10306000009749F0E0917E01F0917F018091840109
:10307000909185010995CF91DF91FF91EF91BF91DB
:10308000AF919F918F917F916F915F914F913F9100
:103090002F910F900FBE0F901F9018951F920F92B7
:1030A0000FB60F9211242F933F934F935F936F931B
:1030B0007F938F939F93AF93BF93EF93FF93DF9390
:1030C000CF93CDB7DEB780918001909181010097B9
:1030D00049F0E0918001F091810180918601909109
:1030E00087010995CF91DF91FF91EF91BF91AF914A
:1030F0009F918F917F916F915F914F913F912F9110
:103100000F900FBE0F901F9018951F920F920FB641
:103110000F9211242F933F934F935F936F937F935D
:103120008F939F93AF93BF93EF93FF93DF93CF93CF
:10313000CDB7DEB78091820190918301009749F06D
:10314000E0918201F0918301809188019091890141
:103150000995CF91DF91FF91EF91BF91AF919F9131
:103160008F917F916F915F914F913F912F910F9030
:103170000FBE0F901F901895DF93CF9300D000D013
:10318000CDB7DEB79B838A836C8381E08983ECE3D0
:10319000F0E080818695882F90E081709070882380
:1031A000B1F7EFE3F0E08A819B81892F9927808333
:1031B000EEE3F0E08A818083EDE3F0E08C818083B0
:1031C000ACE3B0E0ECE3F0E0808184608C93E29AC1
:1031D000E19A198289810F900F900F900F90CF91F3
:1031E000DF910895DF93CF9300D000D00F92CDB739
:1031F000DEB79B838A837D836C8381E08983ECE3E4
:10320000F0E080818695882F90E08170907088230F
:10321000B1F7EFE3F0E08A819B81892F99278083C2
:10322000EEE3F0E08A818083ACE3B0E0ECE3F0E031
:10323000808181608C93EDE3F0E08081EC81FD8101
:10324000808389810F900F900F900F900F90CF91F6
:10325000DF910895DF93CF93CDB7DEB727970FB6F1
:10326000F894DEBF0FBECDBF9C838B837E836D83BE
:1032700081E08A831982ECE3F0E080818695882FD3
:1032800090E0817090708823B1F7EFE3F0E08981DE
:10329000282F30E08B819C81820F931F892F9927E3
:1032A0008083EEE3F0E09B818981890F8083ADE329
:1032B000B0E08981282F30E08D819E81FC01E20FF2
:1032C000F31F80818C93ACE3B0E0ECE3F0E080810D
:1032D00084608C93E29AE19A8981282F30E08D8175
:1032E0009E81FC01E20FF31F80818F838F818823F1
:1032F00011F081E08F838F8199819F5F998388236B
:1033000009F0B9CF8A8127960FB6F894DEBF0FBEB9
:10331000CDBFCF91DF910895DF93CF9300D000D040
:1033200000D0CDB7DEB79B838A837D836C831982FF
:10333000ECE3F0E080818695882F90E081709070BA
:103340008823B1F7EFE3F0E08981282F30E08A810C
:103350009B81820F931F892F99278083EEE3F0E0F2
:103360009A818981890F8083ACE3B0E0ECE3F0E0DF
:10337000808181608C938981282F30E08C819D81B0
:10338000DC01A20FB31FEDE3F0E080818C93898113
:10339000282F30E08C819D81FC01E20FF31F80819A
:1033A0008E838E81882311F081E08E838E819981B6
:1033B0009F5F9983882309F0BBCF80E026960FB6E4
:1033C000F894DEBF0FBECDBFCF91DF910895DF939C
:1033D000CF930F92CDB7DEB781E08983ACE3B0E045
:1033E000ECE3F0E0808188608C9389810F90CF912D
:1033F000DF910895DF93CF930F92CDB7DEB781E0D1
:103400008983ACE3B0E0ECE3F0E08081877F8C93CC
:1034100089810F90CF91DF910895DF93CF930F9221
:10342000CDB7DEB781E08983AAE3B0E0EAE3F0E05C
:1034300080818E7F8C9389810F90CF91DF91089549
:10344000DF93CF9300D000D000D0CDB7DEB78A8312
:103450006B834C8381E089838A81843008F0D0C0FB
:103460008B81883008F0CCC08C81823008F0C8C0D5
:103470008A81282F30E03E832D836D817E816130EB
:10348000710509F441C08D819E818230910534F42B
:103490002D813E812115310571F0B0C06D817E8195
:1034A0006230710509F459C08D819E818330910588
:1034B00009F47CC0A3C0AAE3B0E0EAE3F0E08081B5
:1034C000482F8B81282F30E081E090E002C0880FE8
:1034D000991F2A95E2F7809584238C93AAE3B0E0A4
:1034E000EAE3F0E08081482F8C81282F30E08B8147
:1034F000882F90E0B90102C0660F771F8A95E2F726
:10350000CB01842B8C937AC0A7E3B0E0E7E3F0E033
:103510008081482F8B81282F30E081E090E002C02D
:10352000880F991F2A95E2F7809584238C93A7E34F
:10353000B0E0E7E3F0E08081482F8C81282F30E075
:103540008B81882F90E0B90102C0660F771F8A95A2
:10355000E2F7CB01842B8C9351C0A4E3B0E0E4E309
:10356000F0E08081482F8B81282F30E081E090E0CF
:1035700002C0880F991F2A95E2F7809584238C93C7
:10358000A4E3B0E0E4E3F0E08081482F8C81282FB1
:1035900030E08B81882F90E0B90102C0660F771F61
:1035A0008A95E2F7CB01842B8C9328C0A1E3B0E08D
:1035B000E1E3F0E08081482F8B81282F30E081E02B
:1035C00090E002C0880F991F2A95E2F78095842326
:1035D0008C93A1E3B0E0E1E3F0E08081482F8C819F
:1035E000282F30E08B81882F90E0B90102C0660F50
:1035F000771F8A95E2F7CB01842B8C93198202C046
:1036000082E08983898126960FB6F894DEBF0FBECB
:10361000CDBFCF91DF910895DF93CF9300D000D03D
:1036200000D0CDB7DEB78A836B834C8381E089837A
:103630008A81843008F0D0C08B81883008F0CCC0FB
:103640008C81823008F0C8C08A81282F30E03E8308
:103650002D836D817E816130710509F441C08D81BA
:103660009E818230910534F42D813E8121153105F2
:1036700071F0B0C06D817E816230710509F459C06E
:103680008D819E818330910509F47CC0A3C0ABE39A
:10369000B0E0EBE3F0E08081482F8B81282F30E011
:1036A00081E090E002C0880F991F2A95E2F780958B
:1036B00084238C93ABE3B0E0EBE3F0E08081482F10
:1036C0008C81282F30E08B81882F90E0B90102C0D7
:1036D000660F771F8A95E2F7CB01842B8C937AC013
:1036E000A8E3B0E0E8E3F0E08081482F8B81282F49
:1036F00030E081E090E002C0880F991F2A95E2F740
:10370000809584238C93A8E3B0E0E8E3F0E0808127
:10371000482F8C81282F30E08B81882F90E0B901D1
:1037200002C0660F771F8A95E2F7CB01842B8C933A
:1037300051C0A5E3B0E0E5E3F0E08081482F8B8144
:10374000282F30E081E090E002C0880F991F2A9571
:10375000E2F7809584238C93A5E3B0E0E5E3F0E005
:103760008081482F8C81282F30E08B81882F90E03A
:10377000B90102C0660F771F8A95E2F7CB01842B4F
:103780008C9328C0A2E3B0E0E2E3F0E08081482F10
:103790008B81282F30E081E090E002C0880F991FD4
:1037A0002A95E2F7809584238C93A2E3B0E0E2E3CC
:1037B000F0E08081482F8C81282F30E08B81882F8A
:1037C00090E0B90102C0660F771F8A95E2F7CB013E
:1037D000842B8C93198202C082E08983898126968A
:1037E0000FB6F894DEBF0FBECDBFCF91DF91089525
:1037F000DF93CF9300D000D00F92CDB7DEB78A838E
:103800006B8381E089838A81843008F074C08B8166
:10381000883008F070C08A81282F30E03D832C83E7
:103820008C819D818130910549F12C813D8122302F
:1038300031052CF48C819D81009761F05AC02C8158
:103840003D812230310571F18C819D81833091055C
:10385000E9F14FC0ABE3B0E0EBE3F0E08081482F4B
:103860008B81282F30E081E090E0022E02C0880F8B
:10387000991F0A94E2F784278C933BC0A8E3B0E039
:10388000E8E3F0E08081482F8B81282F30E081E051
:1038900090E0022E02C0880F991F0A94E2F7842755
:1038A0008C9327C0A5E3B0E0E5E3F0E08081482FEA
:1038B0008B81282F30E081E090E0022E02C0880F3B
:1038C000991F0A94E2F784278C9313C0A2E3B0E017
:1038D000E2E3F0E08081482F8B81282F30E081E007
:1038E00090E0022E02C0880F991F0A94E2F7842705
:1038F0008C93198202C082E0898389810F900F9096
:103900000F900F900F90CF91DF910895DF93CF9399
:10391000CDB7DEB727970FB6F894DEBF0FBECDBF89
:103920008A836B835D834C8381E089838C819D8155
:10393000009709F47DC08A81843008F076C08B81BD
:10394000883008F072C08A81282F30E03F832E83B0
:103950004E815F814130510559F18E819F818230C6
:10396000910534F42E813F812115310569F05BC04A
:103970004E815F814230510579F18E819F81833084
:10398000910509F43DC04FC0E9E3F0E08081282FA4
:1039900030E08B81882F90E0A90102C055954795B2
:1039A0008A95E2F7CA018170EC81FD8180833BC07A
:1039B000E6E3F0E08081282F30E08B81882F90E0D3
:1039C000A90102C0559547958A95E2F7CA01817011
:1039D000EC81FD81808327C0E3E3F0E08081282F24
:1039E00030E08B81882F90E0A90102C05595479562
:1039F0008A95E2F7CA018170EC81FD81808313C052
:103A0000E0E3F0E08081282F30E08B81882F90E088
:103A1000A90102C0559547958A95E2F7CA018170C0
:103A2000EC81FD818083198205C082E0898302C018
:103A300083E08983898127960FB6F894DEBF0FBE95
:103A4000CDBFCF91DF910895DF93CF930F92CDB784
:103A5000DEB781E08983E7E2F0E01082A7E2B0E020
:103A6000E7E2F0E0808180648C93A7E2B0E0E7E2D7
:103A7000F0E0808180628C93A7E2B0E0E7E2F0E0C2
:103A800080818C93E6E2F0E01082A6E2B0E0E6E20C
:103A9000F0E080818F7D8C93A6E2B0E0E6E2F0E07A
:103AA00080818C93A6E2B0E0E6E2F0E0808187605E
:103AB0008C931982A6E2B0E0E6E2F0E080818068B3
:103AC0008C9389810F90CF91DF910895DF93CF93ED
:103AD0000F92CDB7DEB71982A6E2B0E0E6E2F0E0E1
:103AE000808180648C9389810F90CF91DF910895BC
:103AF000DF93CF9300D000D0CDB7DEB79B838A830E
:103B000081E089838A819B81009719F483E08C830B
:103B100045C0E6E2F0E0808182958F70882F90E0CA
:103B2000817090700097A9F3E7E2F0E080818295C0
:103B300086958770882F90E0817090708823C9F0F7
:103B4000E4E2F0E080818295869586958370282F47
:103B500030E0E5E2F0E08081882F90E0880F991F47
:103B6000880F991F822B932BEA81FB81918380839D
:103B700012C0E4E2F0E08081282F30E0E5E2F0E0DE
:103B80008081882F90E0982F8827822B932BEA81C1
:103B9000FB8191838083198289818C838C810F9032
:103BA0000F900F900F90CF91DF910895DF93CF93F7
:103BB00000D000D0CDB7DEB79B838A8381E08983B4
:103BC0008A819B81009719F483E08C834CC0E6E2E4
:103BD000F0E0808182958F70882F90E081709070E6
:103BE0000097A9F3E7E2F0E08081829586958770DF
:103BF000882F90E0817090708823C9F0E4E2F0E0B3
:103C000080818295869586958370282F30E0E5E245
:103C1000F0E08081882F90E0880F991F880F991F0E
:103C2000822B932BEA81FB819183808312C0E4E293
:103C3000F0E08081282F30E0E5E2F0E08081882FFD
:103C400090E0982F8827822B932BEA81FB81918328
:103C50008083A6E2B0E0E6E2F0E0808180618C93B0
:103C6000198289818C838C810F900F900F900F9017
:103C7000CF91DF910895DF93CF930F92CDB7DEB749
:103C800081E08983E4E3F0E08FEF8083198289810A
:103C90000F90CF91DF910895DF93CF9300D0CDB7F0
:103CA000DEB78A8381E089838A818436F0F4E5E394
:103CB000F0E08A819AE0692F0E947421892F282FD1
:103CC0008A819AE0692F0E9474219AE0692F0E94EC
:103CD0007421892F882F90E082959295907F982764
:103CE000807F9827822B8083198289810F900F9083
:103CF000CF91DF910895DF93CF930F92CDB7DEB7C9
:103D000081E089830E94241D198289810F90CF91BF
:103D1000DF9108952F923F924F925F926F927F9220
:103D20008F929F92AF92BF92CF92DF92EF92FF92CB
:103D30000F931F93DF93CF9300D000D00F92CDB796
:103D4000DEB79D838C8381E089838C819D81009780
:103D500009F457C00E94661DCE0102960E94D61D2E
:103D60008A819B815C01CC24DD24EE24FF24870121
:103D70002A2D3B2D4C2D5D2D6E2D7F2D802F912FCB
:103D80000F2EFEEEAF2EF02DBB246894B1F8CC249C
:103D9000DD24EE24FF2400E010E00E944900222EE2
:103DA000332E442E552E662E772E882E992EA22C39
:103DB000B32CC42CD52CE62CF72C082D192D2A2D2C
:103DC0003B2D4C2D5D2D6E2D7F2D802F912F0E9430
:103DD000EF01DC01CB01BC01CD0120E030ED4FEB68
:103DE00054E40E946F05DC01CB01BC01CD010E94AF
:103DF000C301DC01CB01EC81FD81918380831982B9
:103E000002C083E0898389810F900F900F900F90FB
:103E10000F90CF91DF911F910F91FF90EF90DF9066
:103E2000CF90BF90AF909F908F907F906F905F905A
:103E30004F903F902F900895DF93CF93CDB7DEB78B
:103E400080917401813071F489E691E00E943D1700
:103E50008CE691E00E943D1780E40E94941310923A
:103E6000740125C089E691E00E9484178CE691E0F8
:103E70000E94841780E40E94B41381E0809374014F
:103E800080E00E944C1E81E063E040E00E940C1B39
:103E900081E060E040E00E940C1B81E061E040E0D6
:103EA0000E940C1B80E061E040E00E940C1BCF915F
:103EB000DF910895DF93CF93CDB7DEB78091730183
:103EC0008B3458F480918A0190918B01009729F0EE
:103ED000809173018B5F8093730181E391E09093F4
:103EE0008B0180938A01CF91DF910895DF93CF9367
:103EF000CDB7DEB780917301843258F080918A018A
:103F000090918B01009729F08091730185508093E7
:103F1000730181E391E090938B0180938A01CF91AB
:103F2000DF910895DF93CF93CDB7DEB780918C01F9
:103F300090918D01009749F080918C0190918D01B5
:103F4000019790938D0180938C0180917201882359
:103F500029F08091720181508093720180918A01D1
:103F600090918B010097C1F080918A0190918B0113
:103F7000019790938B0180938A0180918A0190919F
:103F80008B01009749F480917301282F30E080E085
:103F900090E0B9010E94BC18CF91DF910895DF93A2
:103FA000CF93CDB7DEB761970FB6F894DEBF0FBEE3
:103FB000CDBF0E943B1E0E94AD142AE53FE189E679
:103FC00091E0B90140E050E00E94CB1726E73FE1C5
:103FD0008CE691E0B90140E050E00E94CB172CE163
:103FE0003FE18FE691E0B90140E050E00E94CB173D
:103FF00083E062E040E00E94201A83E063E040E05A
:104000000E94201A81E062E040E00E94201A80E0D5
:1040100061E041E00E94201A81E061E041E00E94FD
:10402000201A81E060E041E00E94201A81E063E014
:1040300041E00E94201A83E062E041E00E940C1BF4
:1040400083E063E041E00E940C1B81E062E041E01C
:104050000E940C1B80E061E040E00E940C1B81E0AC
:1040600061E040E00E940C1B81E063E040E00E94C0
:104070000C1B81E060E040E00E940C1B0E947B1E54
:10408000CE0103960E948A1E0E949B140E94EA0998
:1040900022E93FE180E4B90140E050E00E94D313FF
:1040A00010928B0110928A019E01215F3F4F80E0A8
:1040B00090E0B9010E94F2188F858F3F19F08F852B
:1040C000809373018B819C81282F8B819C81382F59
:1040D0008B819C81482F8B819C81582F8B819C8167
:1040E000682F8B819C81782F8B819C81E82F8B811D
:1040F0009C81F82F8B819C81A82F8B819C812D83A3
:104100003E834F83588769877A87EB87FC87AD8723
:104110008E8781E08093740189E691E00E94841784
:104120008CE691E00E94841780E40E94B413809191
:1041300074018130E1F380918A0190918B010097A5
:1041400029F0809173010E944C1E04C08B819C81D8
:104150000E944C1E80918C0190918D01009709F571
:1041600086E090E090938D0180938C01CE010396C0
:104170000E948A1E80918E018A3011F410928E0165
:1041800050918E01252F30E08B819C81482FCE01EC
:104190000596FC01E20FF31F4083852F8F5F80930C
:1041A0008E018D81282F30E08E81882F90E0280F9E
:1041B000391F8F81882F90E0280F391F8885882F1D
:1041C00090E0280F391F8985882F90E0280F391F2C
:1041D0008A85882F90E0280F391F8B85882F90E0E3
:1041E000280F391F8C85882F90E0280F391F8D8567
:1041F000882F90E0280F391F8E85882F90E0820F3E
:10420000931F2AE030E0B9010E948021CB019A83FC
:1042100089839E01205F3F4F81E060E0A9010E94F9
:10422000861C9E012F5E3F4F80E061E0A9010E9445
:10423000861C80917301882F90E005979C018981ED
:104240009A818217930798F48989813069F180E017
:1042500061E041E00E940C1B81E060E040E00E94D0
:104260000C1B81E063E040E00E940C1B1DC08091AC
:104270007301882F90E005969C0189819A81281707
:10428000390790F48889813079F080E061E040E07E
:104290000E940C1B81E060E041E00E940C1B81E069
:1042A00061E040E00E940C1B80917201882359F468
:1042B0008889813041F48DE38093720181E063E06D
:1042C0000E94F81B34CF80917201882309F02FCF10
:1042D0008989813009F02BCF8DE38093720181E0D1
:1042E00061E00E94F81B23CF991B79E004C0991F5D
:1042F000961708F0961B881F7A95C9F78095089540
:1043000097FB092E07260AD077FD04D02BD006D0C4
:1043100000201AF4709561957F4F0895F6F79095F7
:1043200081959F4F0895629FD001739FF001829FF6
:10433000E00DF11D649FE00DF11D929FF00D839F34
:10434000F00D749FF00D659FF00D9927729FB00DD1
:10435000E11DF91F639FB00DE11DF91FBD01CF01E4
:1043600011240895AA1BBB1B51E107C0AA1FBB1F44
:10437000A617B70710F0A61BB70B881F991F5A95F1
:10438000A9F780959095BC01CD0108952F923F9299
:104390004F925F926F927F928F929F92AF92BF9255
:1043A000CF92DF92EF92FF920F931F93CF93DF9301
:1043B000CDB7DEB7CA1BDB0B0FB6F894DEBF0FBE5E
:1043C000CDBF09942A88398848885F846E847D84AB
:1043D0008C849B84AA84B984C884DF80EE80FD80AD
:1043E0000C811B81AA81B981CE0FD11D0FB6F89423
:0E43F000DEBF0FBECDBFED010895F894FFCFE4
:1043FE00000000000000000000010202030303039E
:10440E000404040404040404050505050505050556
:10441E000505050505050505060606060606060636
:10442E00060606060606060606060606060606061E
:10443E000606060606060606070707070707070706
:10444E0007070707070707070707070707070707EE
:10445E0007070707070707070707070707070707DE
:10446E0007070707070707070707070707070707CE
:10447E0007070707070707070808080808080808B6
:10448E00080808080808080808080808080808089E
:10449E00080808080808080808080808080808088E
:1044AE00080808080808080808080808080808087E
:1044BE00080808080808080808080808080808086E
:1044CE00080808080808080808080808080808085E
:1044DE00080808080808080808080808080808084E
:1044EE00080808080808080808080808080808083E
:1044FE00080808080808080803002F1F012F1F02CC
:06450E002F623D3C01009C
:00000001FF
